:020000040800F2
:1000000000000220BD450008094600080946000816
:1000100009460008094600080946000800000000DB
:100020000000000000000000000000000946000879
:1000300009460008000000000946000809460008BB
:100040000946000809460008094600080946000854
:100050000946000809460008094600080946000844
:100060000946000809460008094600080946000834
:100070000946000809460008094600080946000824
:100080000946000809460008094600081D2E000818
:10009000212E000809460008112E00080946000814
:1000A00009460008094600080946000809460008F4
:1000B00009460008094600080946000809460008E4
:1000C00009460008094600080946000809460008D4
:1000D00009460008094600080946000809460008C4
:1000E00009460008094600080946000809460008B4
:1000F00009460008094600080946000809460008A4
:100100000946000809460008094600080946000893
:100110000946000809460008094600080946000883
:100120000946000809460008094600080946000873
:10013000094600080000000000000000312E000801
:10014000352E000809460008252E0008094600083B
:100150000946000809460008094600080946000843
:100160000946000809460008094600080946000833
:10017000094600080946000809460008000000007A
:100180000000000009460008000000000000000018
:1001900009460008000000000000000009460008B1
:1001A00000000000000000000000000009460008F8
:1001B00009460008094600080946000809460008E3
:1001C0000946000810B5054C237833B9044B13B128
:1001D0000448AFF300800123237010BD8810002075
:1001E000000000000881010808B5034B1BB103495A
:1001F0000348AFF3008008BD000000008C10002011
:1002000008810108A3F5803A704700BF174B002B07
:1002100008BF134B9D46FFF7F5FF00218B460F46A5
:100220001348144A121A08F079FE0E4B002B00D026
:1002300098470D4B002B00D0984700200021040068
:100240000D000D48002802D00C4803F000FA08F019
:100250001FFC2000290003F089FC03F0F5F900BF22
:1002600000000800000000005D3B000800000220C4
:1002700088100020D83100204F3600080000000010
:1002800010B5094B036003F1200280330446C0F827
:10029000BC20C0F8C030BC3007F0DEFC204606F0C1
:1002A000B9FF204610BD00BFD8740108A0F1BC0002
:1002B000E6E7A0F1C000E3E738B52249224C234825
:1002C000234D07F0EDFC2349204807F0E9FC2246C6
:1002D00021491E4807F001FD20491C4807F0E0FCB9
:1002E0001D491A482A4607F0F8FC184807F0C6FCD2
:1002F00020882B8883421DD000F066FF2288184991
:100300002B88124807F0CCFC288800F071FF154BB1
:10031000002818BF0122207808BF02221A7000F0BE
:10032000EDF82978207800F0C1FC00F0DFFC00F047
:1003300037F9FAE70C49054807F0B2FC4FF0FF30F7
:1003400038BD00BFD4560108CC0100206411002044
:10035000A41000201A570108315701083557010829
:100360008A570108882400205257010810B5044616
:10037000FFF786FF204603F0D2FA204610BDA0F119
:10038000BC00F3E7A0F1C000F0E7000013B5094C92
:100390004FF416530093032200230221204606F057
:1003A000BDFA054A0549204602B0BDE8104003F0F9
:1003B00049B900BFA8100020C80100208102000830
:1003C0000FB407B5064B04AA1B6852F8041BD86883
:1003D00001920CF00BFF03B05DF804EB04B0704722
:1003E000B406002008B5074B1A78074B1B789A42D1
:1003F00005D106481146FFF7E3FF012008BD0020A4
:10040000FCE700BFCE0100201E130020A357010807
:10041000024B1870062000F071BA00BF8211002054
:1004200038B50546FFF7DEFF0128044605D105482B
:100430002946FFF7C5FF204638BD034B00241D7039
:10044000F9E700BFE25701081E13002070B50D4EFA
:100450000D4D3378834228BF03461A460B48294680
:100460001C4608F045FC3278094B121BD2B21C70B6
:1004700032702AB12919284608F03AFC012070BDD3
:100480001046FCE7841100201F1700208511002072
:100490001A13002038B5054610460C46FFF7C0FF7A
:1004A000012808D1072000F045FA20B1BDE8384006
:1004B000072000F03FBA192C2246294609D80B48DC
:1004C00008F016FC0A4B1C70BDE83840042000F010
:1004D00015BA084808F00CFC074B1A201C70FFF7EF
:1004E000B5FF072000F00AFAEEE700BF85110020F3
:1004F0001A1300201F1700208411002010B50A4B8A
:100500000A4C00221A70207000F00EFAFFF76AFF02
:10051000207800F07BFA064800F010FEBDE810409D
:10052000044800F011BE00BF1E130020CE010020C1
:1005300095040008110400082DE9FF41164D1F46DF
:1005400095F80080154B144698440E4600F0D4F9F7
:1005500022460146404608F0CBFB2A78023A144472
:10056000E4B2012F2C7003D09DF82830012B10D15C
:1005700000F08CFA039000F083FA039B009022466F
:100580000648314600F0B4FD0020287004B0BDE8F4
:10059000F0810120FAE700BF831100201F13002023
:1005A0002DE9FF47AD4BAE4C1A782578AA4218BF0B
:1005B0001D70012D00F0BC80022D00F0DB80002DAD
:1005C00040F04981062000F0B5F978B1A54B1878C4
:1005D00000F038FAB0FA80F0400900F0A2FD257072
:1005E000062004B0BDE8F04700F092B9032000F007
:1005F000A1F9002849D000F033FA074600F036FA96
:10060000054600F037FA804600F046FA06462846CE
:1006100000F04FF95FFA80F94EBBDFF850A2284690
:1006200000F068F99AF80030834220D0284600F0A4
:1006300061F99AF8002001468B48FFF7C1FE284671
:1006400000F058F9894A1378984208BF431C28469D
:1006500008BF137000F04EF90146854800F033F9E9
:1006600083483A46032100F0E3F901230AE0CDF87C
:1006700000903346424639462846FFF75DFF002E7C
:10068000DDD0002323700320ABE7042000F052F9F3
:1006900038B3764D774B2A781B7803920720029364
:1006A00000F048F9B0FA80F04009DDE90232724901
:1006B00000907248724E00F00DF9724B327818704B
:1006C00001466E4800F0B4F93378FF2B1EBF2B783B
:1006D00001332B706C4B00221A700123237004200D
:1006E0007FE7072000F026F950B1042000F006F95A
:1006F0001A20FFF7ABFE002840F0AD80072070E71E
:1007000000F018F908B100206BE7012000F012F9A1
:1007100008B1012065E700F00DF908B1022060E79B
:10072000052000F007F9002800F09580052058E723
:10073000284600F0FFF8064650B100F0CDF9012838
:1007400003D0052000F0F6F800B102202070E0E7A9
:1007500000F0F0F800287ED0494B1B78FF2B04D125
:100760002846267000F0DAFCCDE70223237000F063
:10077000F3F9C8E7284600F0DDF80546D0B100F0EF
:1007800075F905463D4800F0B5F80646284600F0E4
:10079000B1F8864207D100F093F9002301202370BD
:1007A00000F0BCFCBAE7354800F0A4F8284600F099
:1007B000A1F8B3E7052000F0BDF8E0B1324E337880
:1007C000092B0BD92D4800F095F801462F48FFF76B
:1007D000F7FD2846257000F0A1FCA7E7284B274825
:1007E0001A78284B197800F023F9337801333370E5
:1007F000012323709AE7032000F09CF800B300F077
:100800002FF9074600F032F9054600F033F981462A
:1008100000F042F90646284600F04BF85FFA80F8EF
:1008200026B1CDF8008033464A4624E7DFF83CA0E5
:10083000284600F05FF89AF800308342F1D0F5E6E0
:1008400000F078F800287FF45EAF012000F072F825
:1008500000287FF45EAF04B0BDE8F087811100206E
:100860008011002082110020075801081B1300206E
:100870004D1200201A130020851100205212002072
:100880001E1300201C1300201D13002053580108C4
:10089000024B1A78024B1A70704700BF801100207B
:1008A000811100200078013801288CBF0020012030
:1008B00070470078431E5842584170470078B0FA9C
:1008C00080F040097047002303700123417083705A
:1008D0000320704710B51C469DF808304270012B6C
:1008E00018BF022303702246023008F001FAA01C50
:1008F000C0B210BD4078704702307047034A0123F0
:1009000003FA00F01368184310607047201B0020A2
:10091000044901220B6802FA00F023EA00030B608D
:10092000704700BF201B0020014B00221A60704757
:10093000201B0020012303FA00F0024B1B68184023
:10094000704700BF201B0020054B1B785A1E012A50
:1009500002D80020FFF7D2BF0BB90120FAE7704799
:10096000251B0020F8B507460C4615461E4608F024
:1009700045FB07EE900AFAEEE07AF5EEC07AF1EE6A
:1009800010FA21DD2A462146104808F0B1F9104B33
:100990001F70104B1D7002F05BF90F4B187002F0C6
:1009A00051F90E4B18800E4B20461E70FFF77AFF50
:1009B00020B10320BDE8F840FFF7A0BF2046FFF7B5
:1009C0007DFF08B10220F5E7F8BD00BF281B00201D
:1009D000271B00205C1B0020261B00205A1B002028
:1009E000241B00200FB407B5064B07491B6805AA56
:1009F000D86801920CF0FAFB03B05DF804EB04B088
:100A0000704700BFB40600209158010810B5044695
:100A1000002007F009F808F0E9FA2046024A0349E5
:100A2000BDE8104002F0B0B86509000849090008A7
:100A300010B5044602F0CAF8014B22781A7010BDB6
:100A4000251B002010B502F009F9044618B1014633
:100A50000248FFF7C7FF204610BD00BF91580108AC
:100A6000014B1878704700BF271B002000487047D3
:100A7000281B0020014B1878704700BF5C1B00202A
:100A8000014BB3F9000070475A1B0020014B93F94A
:100A900000007047261B0020014B1878704700BFEC
:100AA000241B0020036818470B68036070477047D9
:100AB000024B002205201A70FFF720BF5D1B0020AB
:100AC00008B5034805F078FE024B00221A7008BDF5
:100AD000601B00205D1B0020014B1878704700BF91
:100AE0005D1B0020C36810B504460BB19B68984796
:100AF000204610BD38B50546064B45F8283B044650
:100B000005F05AFE2846FFF7EDFF204605F082FD6E
:100B1000204638BD2C74010810B50446FFF7EAFFE3
:100B2000204602F0FCFE204610BD000010B5034B2D
:100B300003600446FFF7DEFF204610BDA0740108E5
:100B400038B5CB6804460D460BB15B689847EB6837
:100B5000E360204638BD000030B589B008F04EFA99
:100B6000102204460021684608F0D8F9204B009373
:100B70006946204B039304A8FFF7E2FF032094FB90
:100B8000F0F000EB4000241A0234E4B207EE904A81
:100B90009FED197AF8EE677A67EE877A17EE900A7A
:100BA00013F08CFD05460C4606F082FB134B5A6B86
:100BB00022B993F838300BB106F012F91048FFF75C
:100BC00091FF04A90E48FFF7BBFF2A4623460B48B6
:100BD00005F0DAFD06F082FB04A8FFF783FF684604
:100BE000FFF780FF074B01221A7009B030BD00BF2C
:100BF000B10A0008C458010800247449601B002091
:100C0000881B00205D1B002010B50446FFF78EFFF7
:100C1000204602F084FE204610BD000010B50C4CAA
:100C2000204605F0CFFC20460A4B40F8283B102216
:100C3000002108F073F9012384F83830064B236053
:100C40002046064A0649BDE8104002F0FBBC00BF42
:100C5000601B00202C740108A0740108C80100204A
:100C60002D0B000810B50E4807F008F804460420C4
:100C700000F034FA90B90B490A78E0B2531CDBB2A9
:100C80000A28094C0B7001D00D2806D10023A3546B
:100C90000420BDE8104000F005BAA05410BD00BF0C
:100CA0006420002086240020A11B00201FB50B4BD0
:100CB000102219706846002108F030F9084B0093A3
:100CC0000022084B08480393694606F069FA684613
:100CD000FFF708FF05B05DF804FB00BF8724002084
:100CE000650C0008C4580108A81F00202DE9F04138
:100CF000AD4AAE4C117823782DED028B9942ADF5BB
:100D0000856D18BF1370052B15D8DFE813F0C500EB
:100D10000600470014004A019701A54800F07EFA3A
:100D2000A34800F0DFFA02280BD1A249A24806F03E
:100D3000B7FF052323700DF5856DBDEC028BBDE873
:100D4000F08101289D4F9E4E12D19E483D6808F0CB
:100D500077FD0130C1B232789A48A8479A4996483F
:100D600006F09EFF9949944806F09AFF0023E1E7B8
:100D7000974D98492A6808A808F0ECFA08A83F6837
:100D800008F05EFD0130C1B2327808A8B8472A6881
:100D90009149894806F084FF0423CBE78448DFEDBE
:100DA0008F8A8F4F844E00F05BFA1022002108A832
:100DB00008F0B4F8002208A97D4806F0F1F908A867
:100DC000FFF790FE08A805F0B8FC08A805F03CFC69
:100DD000012508A805F090FC07EE900A38EEE78A96
:100DE000B5EEC08AF1EE10FA1AD87E49724806F0C4
:100DF00057FF052323701022002103A808F08EF866
:100E0000794B03930022794B6948069303A906F0B6
:100E1000C7F903A8FFF766FE08A805F005FC8AE7F6
:100E2000FDEEC87A0323CDED007A2A4639463046D6
:100E300006F036FF6E49304606F032FF10220021E0
:100E40000DEB0200039108F069F818EE103A5848CB
:100E5000142203A900F0E0FA38B96649304606F0DA
:100E60001FFF0135042DB4D1C5E703A800F020FA17
:100E700028B16149504806F013FF0423BAE75F49DF
:100E8000304606F00DFF032DEBD15D49304606F0EC
:100E900007FF05232370E4E7022000F01FF9064650
:100EA000002849D000F040F9054600F041F908AEAD
:100EB0004FF00008074640F202424146C6F8008063
:100EC00009A808F02BF83A462946304607F010FFEB
:100ED00006F807804B490422284608F01FFDE8B9B0
:100EE0002B793B4D303B042B2B6011D846494748AA
:100EF00051F82310142208F051FD2A6844492E4865
:100F000006F0CEFE02232370022000F0D5F812E78F
:100F10004049294806F0C4FE0523F4E73E4904226F
:100F2000284608F0FBFC08B93C49F2E73C49224856
:100F3000324606F0B5FEE7E7042000F0CFF80028BF
:100F40003FF4F9AE34493748374F08F09DFA05466B
:100F5000A8B9364918480523237006F0A1FE314888
:100F60003D7040F20642294607F0D8FF04200DF5F7
:100F7000856DBDEC028BBDE8F04100F09DB82949BC
:100F80002B4808F0EBFB0D4B0D4A1B6812783978A3
:100F900027489847264A2749074806F081FE3E70B1
:100FA000E4E72549DFE600BFA01B002088240020DD
:100FB000A81F0020D05801086420002090240020A1
:100FC00087240020FE580108035901081759010819
:100FD0000C020020345901083B5901080000F0427E
:100FE000885901085B590108650C0008C4580108BC
:100FF000B3590108BC590108E7590108115A010801
:10100000285A01085B5A0108D0010020F628002068
:10101000605A01087C5A0108A35A0108A85A01081D
:10102000DB5A0108A11B002086240020E75A010892
:10103000802000200A5B0108155B010809490A4865
:1010400006F02EFE00F044F81022002108A807F058
:1010500065FF0648002208A906F0A2F808A8FFF7D5
:1010600041FDFEE7305B010864200020A81F00203E
:1010700013B5094C4FF416530093032200230221A9
:10108000204605F04BFC054A0549204602B0BDE864
:10109000104002F0D7BA00BFA81F0020C8010020EE
:1010A00081020008034A012303FA00F01368184381
:1010B000106070478C240020044901220B6802FA5A
:1010C00000F023EA00030B60704700BF8C2400206F
:1010D000014B00221A6070478C240020012303FA80
:1010E00000F0024B1B681840704700BF8C240020A2
:1010F00038B50C4601460648154607F0F9FD054B84
:101100001D70054B1C70BDE838400220FFF7CABFB8
:101110009824002098280020992800200520FFF717
:10112000C1BF0620FFF7BEBF0048704798240020CB
:10113000014B1878704700BF98280020014B1860B9
:10114000704700BF90240020014B1860704700BF1B
:101150009424002010B50C4C204605F033FA2046AC
:101160000A4B40F8283B1022002107F0D7FE01234C
:1011700084F83830064B23602046064A0649BDE80D
:10118000104002F05FBA00BFA02800202C740108B4
:10119000A0740108C80100202D0B000810B5084BF1
:1011A000084A19780023994205DD32F8024B84423F
:1011B00003D00133F7E7002010BD0120FCE700BF9A
:1011C000E0280020E228002070B5074E3478092C72
:1011D000054607D8FFF7E2FF20B9631C3370034BC5
:1011E00023F8145070BD00BFE0280020E228002042
:1011F00010B5084B084A19780023994205DD32F8EA
:10120000024B844203D00133F7E7012010BD0020D8
:10121000FCE700BFE0280020E2280020F8B500F13C
:10122000BC040B490B4E0C4F204606F039FD00253F
:1012300056F8042B39462046013506F031FD052DC0
:10124000F6D120460549BDE8F84006F029BD00BFAB
:101250005C5B0108E4010020035D01089B5B010861
:1012600038B50D4D2B68042B00F1BC0405D90B4992
:101270002046BDE8384006F013BD0949204606F077
:101280000FFD2A68074B084953F82220204606F034
:1012900007FD0649ECE700BF0C020020DA5B0108FD
:1012A000045C0108F8010020985C0108235C010837
:1012B00010B5044608B9002010BD08F0C1FA002896
:1012C000F9D0064B1A68064B204653F8221008F056
:1012D000DBF8B0FA80F04009EEE700BF0C02002016
:1012E000D00100202DE9F041102288B000240646EC
:1012F00021460DEB0200CDE90044CDE9024407F0A0
:101300000DFE224604A9304605F04AFF06F1BC0551
:1013100004A8FFF7E7FB34490522284606F0C0FC85
:10132000E8464746284606F0A9FCC3B20D2B29D152
:1013300004F120030DEB03044FF0000804F8208CA7
:101340002A4C2B493A46284606F0AAFC14BB102228
:1013500021460DEB020007F0E1FD04A90022304612
:1013600005F01EFF04A8FFF7BDFB2249384608F030
:1013700057F8C8B92049284606F092FC012008B069
:10138000BDE8F0810A2BD3D00E2CCBD808F8013B56
:101390000134C7E7102241460DEB020007F0BEFD05
:1013A000164B04940793D8E7384606F0F9FC013849
:1013B000042805D91249284606F072FC0220DEE70F
:1013C000104B114C53F82010206014220F4808F0E5
:1013D000E5FA22680E4B0F4953F82220284606F002
:1013E0005FFC0020CBE700BF415C0108650C0008F2
:1013F000885C0108335701089C5C0108C458010847
:10140000CA5C0108D00100200C020020F628002050
:10141000E4010020F15C01082DE9F0432DED028B81
:1014200089B00546684608EE103A0E46174605F0A4
:1014300084F9684605F008F905F1BC04284605F072
:1014400019FE38BBDFF89890002405F1BC08013F75
:10145000684605F051F907EE900AF4EEC87AF1EE0D
:1014600010FA29D5284605F005FE0028F0D04046A0
:1014700006F004FCC3B20D2B1ED00A2B1CD07F2B10
:1014800001D0082B0FD174B149464046013C06F00B
:1014900007FCDDE7204606F0F1FBC0B20A28D1D0F8
:1014A0000D28CBD1CEE7BC42D2DAA3F120025E2ACE
:1014B000CED833550134CBE700233355684605F0C9
:1014C000EEF8304608F0BCF90446684605F0ACF882
:1014D000201E18BF012009B0BDEC028BBDE8F083CF
:1014E000995E01080FB407B5064B04AA1B6852F8B1
:1014F000041BD86801920BF079FE03B05DF804EB91
:1015000004B07047B4060020002000F05BBF00006C
:101510002DE9F041BDF81C50B5F5806F06460C462C
:1015200090461F4606D322482946FFF7DBFF0620D8
:10153000BDE8F081022000F0A1FC08B10720F7E728
:101540003146022000F0F6FC4FFA88F1022000F04C
:101550002DFD3946022000F047FD0699022000F0DB
:1015600061FD2146022000F0C7FC8EB90B3C012C26
:1015700012D80121022000F0A1FC7DB90121022036
:1015800000F06EFD00F0D6FD0130D7D00020CFE78F
:10159000012E01D10C2CECD00021EBE70021022020
:1015A00000F05EFD2946022000F078FDEAE700BF6A
:1015B0009D5E01087047000084B038B504AC84E833
:1015C0000F000220DDE9085400F058FC20B107208C
:1015D000BDE8384004B070470C2C15D9214611489D
:1015E000FFF780FF0C21022000F086FCA5B90B3C20
:1015F000012C15D80121022000F060FC00F09AFDBA
:101600000130E4D00020E3E7052CEFD8214605485F
:10161000FFF768FF0621E6E7012D01D10C2CE9D088
:101620000021E8E72D5F01080FB407B5064B074915
:101630001B6805AAD86801920BF0D8FD03B05DF8CD
:1016400004EB04B0704700BFB4060020565F0108E9
:1016500084B010B502AC84E80F009DF80D1001298C
:1016600005D0BDE81040254804B0FFF7DDBF9DF868
:10167000293033205BB301F009F840F04101C9B2D1
:10168000332000F0F8FF19213B2000F0F4FF9DF813
:1016900027309DF82A402BB31D21112000F0EBFFCD
:1016A000402000F0F3FF00F03301402000F0E3FFA2
:1016B00000210F2000F0DFFF00210D2000F0DBFFF4
:1016C000D4B10520BDE8104004B001F015B800F019
:1016D000DDFF00F0BE0141F00101332000F0CBFF3F
:1016E0001D21D1E71F21112000F0C5FF402000F08F
:1016F000CDFF00F03F01D8E70620E3E7565F010881
:1017000084B02DE9F04106AC84E80F000898BDF8DC
:1017100032609DF83450BDF842700B9CDDF8288093
:1017200000F0CAFF1D2000F0B1FF9DF831309DF898
:10173000301041EAC3019DF8363041EA881141EA90
:10174000430141EA8501C9B21D2000F094FF1E202B
:1017500000F09CFFC7F3012100F00C0041EA0411E6
:101760000143C9B21E2000F086FFF9B21F2000F02D
:1017700082FF310A202000F07EFFF1B2212000F02C
:101780007AFF25B19DF83510222000F074FF9DF8F6
:1017900037306BB14B2000F079FF60F07F01C9B2A8
:1017A0004B2000F068FF9DF83810242000F063FF04
:1017B000062C4FF031000FD100F068FF00F0F80167
:1017C00041F00501312000F056FF0C21BDE8F04149
:1017D000372004B000F04FBF00F058FF00F0F801D0
:1017E00041F00301312000F046FF0A21EEE780219D
:1017F000122000F040BF4021122000F03CBF07B58E
:10180000122000F043FF8DF807009DF80700C0F399
:10181000401003B05DF804FB2021122000F02BBF24
:1018200008B5192000F032FF030643BF4042C0F361
:101830008500404240F3870008BD84B010B502AC7B
:1018400084E80F009DF938401A2000F01FFF002C9B
:10185000B8BF8B3C4FEA2013B8BF0019BDE8104059
:10186000A8BF8B38184400B204B0704738B505469D
:10187000132000F00BFF04460146284600F016FF37
:10188000204638BD0FB407B5064B04AA1B6852F8B2
:10189000041BD86801920BF0A9FC03B05DF804EBBF
:1018A00004B07047B406002008B528B90848FFF70F
:1018B000E9FF4FF0FF3008BD402905D90548FFF783
:1018C000E1FF6FF00100F6E7BDE8084000F0CEBD93
:1018D000955F0108C15F0108F8B5074601200D4674
:1018E00014461E4600F0CAFA08B10720F8BD394672
:1018F000012000F03DFB2946012000F01BFB71B2E6
:10190000012000F053FBBDF81810012000F06CFB23
:101910000799012000F086FB2146012000F0ECFA37
:1019200065B90B3C012C0DD80121012000F0C6FA4D
:1019300000F0D2FB0130D8D00020D7E7012D01D133
:101940000C2CF1D00021F0E784B038B504AC84E869
:101950000F000120DDE9085400F090FA20B10720C3
:10196000BDE8384004B070479DF91C0000F010FC41
:1019700050BB012000F082FA0028F0D10C2C15D9C0
:1019800021461248FFF77EFF0C21012000F0B4FA37
:10199000A5B90B3C012C15D80121012000F08EFACD
:1019A00000F09AFB0130DAD00020D9E7052CEFD8FF
:1019B00021460648FFF766FF0621E6E7012D01D123
:1019C0000C2CE9D00021E8E70120C9E72D5F0108D0
:1019D0000FB407B5064B07491B6805AAD8680192E2
:1019E0000BF004FC03B05DF804EB04B0704700BFDB
:1019F000B4060020FB5F010884B070B504AC84E835
:101A00000F0009209DF9404000F040FE06465A2094
:101A100000F03CFE9DF8103003F0FD03012B14BFD5
:101A200000238023054606F07F001843030600F0DC
:101A3000F00127D5112CCBBF45F0070505F0F805BF
:101A4000EDB245F0040505F00703072B12D1142C65
:101A5000A8BF1424052CB8BF0524631F1943C9B2BD
:101A6000092000F008FE2946BDE870405A2004B065
:101A700000F001BE112CA8BF1124022CB8BF022413
:101A8000A31EEBE70E2CA8BF0E2444EAE474013435
:101A90002143E4E784B008B50DF1080C8CE80F0091
:101AA0009DF80D10012905D0BDE80840124804B08A
:101AB000FFF78EBF9DF827309BB1F521112000F074
:101AC000DAFD402000F0E2FD00F03301402041F05B
:101AD000400100F0D0FDBDE80840032004B000F054
:101AE0000BBEF721112000F0C6FD402000F0CEFD16
:101AF00000F03F01EAE700BFFB5F010884B02DE979
:101B0000F0418AB010AC84E80F009DF94C30089386
:101B100014AD0FCD6C46159EBDF85A70DDF850809F
:101B20000FC495E80F0084E80F0010AB0FCBFFF750
:101B300063FF129800F0C0FD9DF85F306BB14B2041
:101B400000F0A4FD60F07F01C9B24B2000F093FDCE
:101B50009DF86010242000F08EFD1D2000F096FD01
:101B60009DF859309DF8581041EAC3019DF85C304A
:101B700041EA881141EA83019DF85E3041EA430160
:101B8000C9B21D2000F077FD1E2000F07FFD00F09F
:101B90000F0141EA0611C9B21E2000F06CFD390A9E
:101BA000202000F068FD2120F9B200F064FD062E2F
:101BB0004FF0310010D100F069FD00F0F80141F064
:101BC0000501312000F057FD0C2137200AB0BDE897
:101BD000F04104B000F04FBD00F058FD00F0F801F6
:101BE00041F00301312000F046FD0A21EDE7082114
:101BF000122000F040BD08B568B1332000F046FD6A
:101C000000F0BE01332000F036FD19213B20BDE875
:101C1000084000F030BD332000F038FD00F0BE0178
:101C200041F00101332000F026FD1D21EEE738B51B
:101C3000044622200D4600F01EFD00210E2000F07B
:101C40001AFD00210D2000F016FD012000F01EFD00
:101C500030F0F80304D100F07DFD012005F0D8FD3F
:101C600029462046BDE8384000F01BBD0FB407B53B
:101C7000064B04AA1B6852F8041BD86801920BF0AB
:101C8000B5FA03B05DF804EB04B07047B406002069
:101C900010B50A4C21788142024605D00848FFF76A
:101CA000E5FF4FF0FF3004E0022001F001F808B931
:101CB000207010BD0348FFF7D9FFF2E7802900200C
:101CC0002F6801088568010808B5044804F074FD10
:101CD00000F043FD024B01221A7108BD10290020BB
:101CE0005029002013B5174C2379022B03D0032B66
:101CF00019D002B010BDFFF75DFCFFF7E5FF032030
:101D000000F0D6FF012808D000230F4A0093146882
:101D100019461A460120A047EBE70C4802B0BDE87F
:101D20001040FFF7A3BF204600F05AFD94F82800AA
:101D300000F047FD0123237102B0BDE8104000F020
:101D4000E7BF00BF50290020842900200568010852
:101D50002DE9F041354C267988B046B134483146FA
:101D6000FFF784FF4FF0FF3008B0BDE8F081314B42
:101D70001860314B31481960FFF778FF4FF48070DD
:101D800006F052FF2E4B186028B92E48FFF76EFF61
:101D90006FF00100E8E74FF4FA6262620E222273EC
:101DA0000B22294B626108224FF00108A360628375
:101DB00004230522204684F820306285237084F8AD
:101DC00005802677E67784F81E8084F821602661F6
:101DD00084F81980667784F8228084F8288000F0DF
:101DE000FFFC2546014605F8100B1848FFF73EFF9B
:101DF0000FCD6F460FC795E80F0087E80F0094E8F6
:101E00000F00FFF7A1FDA5F1100CBCE80F006F4615
:101E10000FC795E80F0087E80F0094E80F00FFF761
:101E2000CBFB84F8048030469EE700BF5029002099
:101E3000FC60010888290020842900204D610108E8
:101E40000C2900207A6101082021F636B4610108CE
:101E500008B5042000F02CFF012805D10648FFF743
:101E600005FF4FF0FF3008BDFFF72EFF022000F006
:101E70001FFF0020F7E700BFCA61010838B505461B
:101E800018B90A48FFF7F2FE05E0094C217829B19C
:101E90000848FFF7EBFE4FF0FF3004E0084600F083
:101EA00007FF08B9257038BD0348EBE7DA6501087C
:101EB00080290020176601085A66010838B50446D3
:101EC0000D4600F01FFF0128084B06D11A78A242E8
:101ED00003D1074B00201D7638BD06481A782146ED
:101EE000FFF7C4FE4FF0FF30F6E700BF8029002067
:101EF000502900207B65010838B504460D4600F0E6
:101F000001FF0128084B06D11A78A24203D1074BE2
:101F100000205D6138BD06481A782146FFF7A6FE0D
:101F20004FF0FF30F6E700BF802900205029002045
:101F30001C65010838B504460D4600F0E3FE012893
:101F4000084B06D11A78A24203D1074B00201D612D
:101F500038BD06481A782146FFF788FE4FF0FF305B
:101F6000F6E700BF80290020502900208E66010876
:101F700038B504460D4600F0C5FE0128084B06D1D1
:101F80001A78A24203D1074B00201D7338BD0648C2
:101F90001A782146FFF76AFE4FF0FF30F6E700BFE0
:101FA0008029002050290020A063010838B504468C
:101FB0000D4600F0A7FE0128084B06D11A78A24270
:101FC00003D1074B00205D7638BD06481A782146BC
:101FD000FFF74CFE4FF0FF30F6E700BF80290020EE
:101FE00050290020BD64010838B504460D4600F0B4
:101FF00089FE0128084B06D11A78A24203D1074B6B
:1020000000205D8338BD06481A782146FFF72EFE72
:102010004FF0FF30F6E700BF802900205029002054
:10202000E766010838B504460D4600F06BFE01284E
:10203000084B06D11A78A24203D1074B00209D60BD
:1020400038BD06481A782146FFF710FE4FF0FF30E2
:10205000F6E700BF8029002050290020A76701086B
:1020600038B504460D4600F04DFE0128084B07D157
:102070001A78A24204D1074B002083F8225038BDC1
:1020800005481A782146FFF7F1FD4FF0FF30F6E7DB
:1020900080290020502900204967010838B50446EE
:1020A0000D4600F02FFE0128084B06D11A78A242F7
:1020B00003D1074B00205D8538BD06481A782146BC
:1020C000FFF7D4FD4FF0FF30F6E700BF8029002076
:1020D0005029002060640108F0B589B000F012FEBC
:1020E0000128114B18D11F78012F15D10F4E06F181
:1020F000100500F035FB0FCD6C460FC495E80F00BE
:1021000084E80F0096E80F00FFF7F8FC3846FFF769
:10211000BFFD002009B0F0BD05481978FFF7A6FD06
:102120004FF0FF30F6E700BF802900205029002043
:102130003C630108F0B589B000F0E4FD0128114BC3
:1021400018D11F78022F15D10F4E06F1100500F09F
:1021500007FB0FCD6C460FC495E80F0084E80F0015
:1021600096E80F00FFF7CCFA3846FFF791FD002004
:1021700009B0F0BD05481978FFF778FD4FF0FF3042
:10218000F6E700BF8029002050290020D86201080E
:10219000F0B58BB0044600F0B5FD0128104B17D107
:1021A0001F78012F14D10F4E089406F110050FCDA2
:1021B0006C460FC495E80F0084E80F0096E80F0006
:1021C000FFF71AFC3846FFF763FD00200BB0F0BDA7
:1021D00005481978FFF74AFD4FF0FF30F6E700BFDA
:1021E0008029002050290020FC6301080E4B1B7938
:1021F000022B13B510D1FFF7FAFAFFF765FD0320A4
:1022000000F056FD012809D00023084A0093146805
:1022100019461A460120A04702B010BD044802B07A
:10222000BDE81040FFF722BD50290020842900207E
:10223000F26101082DE9F041454E3479022C8AB053
:1022400067D1FFF7D8FAFFF7DAFA012829D1FFF7AB
:10225000E3FA96F82250ADB9FFF736FD032000F0FF
:1022600027FD012808D03B4B00951E682A462B46C7
:1022700029462046B04711E037480AB0BDE8F04192
:10228000FFF7F4BC00F03EFD0328F5D10023314AEE
:102290000093156819461A462046A8470AB0BDE8BB
:1022A000F081FFF7BDFA06F11005089007460FCD43
:1022B0006C460FC495E80F0084E80F0096E80F0005
:1022C000FFF7BBFA254C80462068FFF7CFFA96F857
:1022D000226005468EB9FFF7F7FC032000F0E8FC0A
:1022E000012808D01B4B00971F68216843462A46E7
:1022F0003046B847D2E71A48BFE700F003FD03288D
:10230000F9D1144B00971E68216843462A460020E5
:10231000B0E7032C14D1134804F04EFAFFF767FC22
:10232000FFF7D2FC204600F0C3FC012806D00E4B7C
:102330001B6800200AB0BDE8F04118470B489CE735
:102340000B4821460AB0BDE8F041FFF78FBC00BF43
:102350005029002084290020356001080C29002024
:10236000716001081029002088290020AC60010854
:10237000E06001082DE97043044699460D469046F9
:1023800004F096FF636B23B994F838300BB104F076
:1023900027FD04F12806AE420BD03046FEF7A2FB23
:1023A0003EB1EB681BB15B68294630469847EB6845
:1023B000636342464B46204604F0E6F9BDE87043AD
:1023C00004F08CBFF0B506468DB0012000F070FC23
:1023D000012806D11E48FFF749FC4FF0FF300DB031
:1023E000F0BD1C4B1C4F18684FF48072002107F1A0
:1023F000100506F093FD0FCD6C460FC495E80F0055
:1024000084E80F0097E80F00FFF722F902233B71E1
:10241000E6B11022002108A806F080FD0F4B0893BA
:1024200030460F4B0B9311F057FD00220D4B11F06E
:10243000CDFD12F063F902460B460B4808A9FFF7E1
:1024400099FF08A8FEF74EFB0020C8E73046C6E714
:10245000216201080C29002050290020E51C0008F9
:10246000C458010800408F4010290020F0B5304CBE
:102470002379032B8FB006460D4606D12D48FFF772
:10248000F5FB4FF0FF300FB0F0BD042000F010FC62
:102490000128F3D0FFF718FC0A2005F0B9F9022053
:1024A00000F006FC012000F003FC012801D12248C5
:1024B000E5E763791BB1012B03D000270CE01F482F
:1024C000DDE794F82100FFF796FB2946304684F8B3
:1024D0002E50FFF7ACFB676A194E08970FCE6D467A
:1024E0000FC596E80F0085E80F0094E80F00FFF78E
:1024F000D1FA0323102200210AA8237106F00EFD51
:10250000104B0A933846104B0D9311F0E5FC002256
:102510000E4B11F05BFD12F0F1F802460B460C4831
:102520000AA9FFF727FF0AA8FEF7DCFA0020AAE7AE
:102530005029002048620108786201089F62010862
:1025400060290020E51C0008C458010800408F40A5
:102550001029002010B50C4C204604F033F820461A
:102560000A4B40F8283B1022002106F0D7FC01233B
:1025700084F83830064B23602046064A0649BDE8F9
:10258000104001F05FB800BF102900202C74010832
:10259000A0740108C80100202D0B000810B50446E6
:1025A000044B40F8B83BD4F8C4300BB19B68984753
:1025B000204610BDBC7501080FB407B5064B07498E
:1025C0001B6805AAD86801920AF010FE03B05DF8F6
:1025D00004EB04B0704700BFB4060020E8680108AF
:1025E000F8B50D4C0D4F23681646E2681B040D46E6
:1025F000136040F08001094804F020FB013D2E44A7
:10260000B54205D015F8011F384604F017FBF7E76F
:10261000A36822681A60F8BD482A0020802A00209A
:10262000F8B50E4C0E4F23681646E2681B040D46A3
:10263000136000F07F010A4804F000FB013D2E44C6
:10264000B54206D00021384604F0F8FA05F8010F2B
:10265000F6E7A36822681A60F8BD00BF482A002088
:10266000802A002010B50446FFF798FF204601F0AD
:1026700056F9204610BD07B502AB012203F8011D33
:102680001946FFF7ADFF03B05DF804FB07B5012263
:102690000DF10701FFF7C4FF9DF8070003B05DF8D7
:1026A00004FB0A4601460020FFF79ABF0A4601468E
:1026B0000020FFF7B5BF000010B511F00DFC0CA312
:1026C000D3E9002311F0ACFD11F058FF0446C0F32C
:1026D00007410620FFF7CFFFC4F307210720FFF7CC
:1026E000CAFFE1B20820BDE81040FFF7C4BF00BF39
:1026F0000000000080844E40144910B50A7804465A
:1027000090B932B901230B70114BDA681B681B04B6
:1027100013600120FFF7BAFF00F0F8012143012008
:10272000BDE81040FFF7A7BF094B2AB11A68002087
:102730000870D96812040A60032C1A6803D0DB6899
:1027400012041A60E5E79B68FBE700BF5C2B0020E2
:102750002C2A00200120FFF7CFBF0020FFF7CCBFBD
:1027600010B504460120FFF791FFC0F3C01084426A
:1027700026D0012C13D0FFF7F0FF0120FFF786FFD2
:1027800000F07F010120FFF776FF00214020FFF7D6
:1027900072FF30214120BDE81040FFF76CBFFFF70A
:1027A000DCFF2046FFF772FF60F07F01C9B22046D0
:1027B000FFF761FF00214020FFF75DFF0021E9E7FF
:1027C00010BD10B504460120FFF7CAFF2CB134211B
:1027D0003920BDE81040FFF74EBF1221F8E7000096
:1027E0002DE9FF47594C054604F062FD01212046C2
:1027F00000F000FC04F072FD2368E2681B04136023
:10280000012005F005F804F053FD2046002100F0FA
:10281000F1FB04F063FD062004F0FAFF2E784C4C27
:10282000042E1CD104F044FD0021204600F0E2FB00
:1028300004F054FD012004F0EBFF63681A6823687C
:102840001A4214BF0126002604F032FD2046012161
:1028500000F0D0FB04F042FD012004F0D9FF236812
:10286000E2683C483C4C1B0413603C4B9A681B6874
:1028700013600821002204F0BFF9394804F0BAFFC0
:102880000020FFF739FF1022ACBB2146684606F056
:1028900045FB69463348344C04F0BDF86846FEF702
:1028A00021F910227CBB2146684606F037FB6946B9
:1028B0002E48DFF8C8802E4C04F0ADF86846FEF7CD
:1028C00011F94FF0030900235F1CDBB2D8F8002098
:1028D000B2FBF9F29A421ED903EB430304EB030A5D
:1028E000E05CFFF73DFF9AF802109AF80100FFF74D
:1028F000C2FE3B46E8E70021684606F00FFB1D4B91
:1029000000940393C5E70021684606F007FB194BC6
:1029100000940393CBE76879174CFFF721FF95F8F4
:102920002800FFF74EFF4220FFF7B0FE38B92046DF
:10293000FFF742FE4FF07E5004F05CFFF3E7A8681B
:10294000FFF7BAFE304604B0BDE8F087642A0020E5
:102950002C2A0020802A002035220008482A002046
:10296000CDCCCC3D8C290020ED210008DC290020B5
:10297000B5680108C4580108E86801081002002081
:1029800073B5224D224C234E0A21284603F0E8FF5E
:102990002846214D2246314600F054FE1321284698
:1029A00003F0DEFF2246314628461C4D00F04AFE69
:1029B0004FF0FF330093062205230721284604F039
:1029C0006FF922461649284600F03CFE154B1C24A0
:1029D00022461846002106F0A1FA162103F076FFE0
:1029E000114B22461846002106F098FA002103F008
:1029F0005AFF0E4B22460021184606F08FFA21217D
:102A000002B0BDE8704003F04EBF00BF8C2900202B
:102A1000C8010020B9690008DC290020802A0020B4
:102A20009D250008482A0020642A00202C2A002026
:102A30000FB407B5064B04AA1B6852F8041BD868EC
:102A400001920AF0D3FB03B05DF804EB04B07047C9
:102A5000B406002013B5084B0024CDE90034012250
:102A6000082307212046FEF753FDFEF74DFD034BDB
:102A70001C7002B010BD00BF2021F6365D2B002077
:102A800010B5044648B9FFF7E3F9FFF7E3FF084B39
:102A90001B682046BDE810401847012807D1FFF702
:102AA000D7F9FFF7D7FF024B02201B68F2E710BDF2
:102AB000A02B00202DE9F041884615461F469DF9C0
:102AC000186000283BD1202A03D92648FFF7B0FF21
:102AD0002025254C2A464146204606F009F9234B7D
:102AE0001F80234B1E7026782746FEB9214BA47801
:102AF0001B78A34201D0FF2C1BD1A4F1FF035C4241
:102B00005C4101261C4B1B78ABB9FFF7A1F9FFF71D
:102B1000A1FF012E24D1194B787819492A1F1D686D
:102B2000D2B22346AC46BDE8F041604700242646B9
:102B3000E8E73446E6E71348FFF77AFFE9E70138AC
:102B400001280DD80C4B1B782BB9FFF781F9BDE894
:102B5000F041FFF77FBF0B48BDE8F041FFF768BFCA
:102B6000BDE8F081F56901085E2B0020AA2B00204A
:102B7000A82B0020AC2B00205D2B0020A42B0020D4
:102B8000622B00203A6A01080A4B10B518700A4BF4
:102B900019600A4B0A491A6004460A48FFF7D8F838
:102BA000094B00225C701A70FFF752F9BDE8104023
:102BB000FFF750BFAC2B0020A02B0020A42B00203F
:102BC000B52A0008812A00087E2B0020F7B5184F8F
:102BD0003C7834B117482146FFF72AFF012003B0A3
:102BE000F0BD1C2905D914482022FFF721FF03203E
:102BF000F5E7124D0E1DAA70F6B20A460146281DD1
:102C00002C70EE7006F074F8FFF722F90C4A0823D6
:102C1000CDE900322146012307220E20FEF75CFE9B
:102C200031462846FEF740FE01233B702046D6E79A
:102C30005D2B00200A6901084B6901087E2B0020EA
:102C40002021F636014BB3F900007047AA2B002073
:102C5000014B93F900007047A82B002010B5074BDB
:102C60001C78012C05D106482146FFF7E1FE2046DD
:102C700010BD044B18700020FAE700BF5D2B002048
:102C800095690108AC2B00200FB407B5064B074926
:102C90001B6805AAD86801920AF0A8FA03B05DF88B
:102CA00004EB04B0704700BFB4060020AF6A01080F
:102CB00037B501460D480E4A037803EB83052A44D5
:102CC000545C012C06D00B4B2B445B5C03702046FC
:102CD00003B030BD0848642202FB0300009007489F
:102CE00002FB01020648FFF7CFFFF0E7AD2B002003
:102CF0009B6A0108876A010808040020140200206A
:102D0000AF6A0108014B1878704700BFAD2B002057
:102D1000014B00221A707047AD2B002043692DE94A
:102D2000F0410D46D907044628D58168334F8268A3
:102D3000334E836833483940B94202EA060204BF81
:102D40000127A760B24203EA000304BF4FF4807674
:102D5000A660834204BF4FF48030A06027488142C0
:102D600005D027498A4202D0264A934206D1264BF3
:102D7000264A1B6852F8250001219847E2686369DA
:102D8000920708D09F0706D51F4B204A1B6852F8B0
:102D9000250000219847A169626963698E070AD5F9
:102DA000900508D5190406D5174B184A1B6852F828
:102DB000250005219847A7696669626917F004072D
:102DC00006F4806609D046B1120406D50E4B0F4AB0
:102DD0001B6852F825000721984763695FB156B117
:102DE0001B0408D5084B094A1B6852F8250002212C
:102DF000BDE8F0411847BDE8F08100BF03000004C2
:102E00000003000800000310B82B0020B02B0020A6
:102E100000210148FFF782BF00640040FFF7F8BFC0
:102E2000FFF7F6BF01210148FFF778BF00680040B7
:102E3000FFF7F8BFFFF7F6BF30B5036891FAA1F4CA
:102E4000B4FA84F491FAA1F10325B1FA81F1640096
:102E500005FA04F4490023EA040302FA01F11943D4
:102E6000016030BD00B5002389B007286FD8DFE8C6
:102E700000F00413202D3A4754610093364B374835
:102E80001A6B42F001021A631B6B03F001030093FB
:102E9000009B09B05DF804FB01932F4B30481A6B7F
:102EA00042F002021A631B6B03F002030193019BC1
:102EB000EFE70293284B2B481A6B42F004021A6387
:102EC0001B6B03F004030293029BE2E70393224B84
:102ED00025481A6B42F008021A631B6B03F00803C3
:102EE0000393039BD5E704931B4B20481A6B42F0D6
:102EF00010021A631B6B03F010030493049BC8E7D2
:102F00000593154B1A481A6B42F020021A631B6B8B
:102F100003F020030593059BBBE706930E4B154872
:102F20001A6B42F040021A631B6B03F040030693D6
:102F3000069BAEE70793084B0F481A6B42F08002DE
:102F40001A631B6B03F080030793079BA1E70B48F1
:102F500004F016FD00209CE700380240000002400B
:102F60000004024000080240000C02400010024031
:102F70000014024000180240001C0240846D010849
:102F8000431C10B5044604D176220649064803F0D6
:102F900067FF2046002100F00DFE04F00F04012021
:102FA000A04010BDA56D0108FF6D010870B5044675
:102FB0004B1C0E46218216D0C1F30310FFF752FFBF
:102FC00005463046FFF7DCFF238A074A656103F0B8
:102FD0000F03206052F82330A36105F11003183568
:102FE0006360A560E56070BDBC700108B0F91000B9
:102FF00000F078BE0A4619B981694069FFF71CBF25
:103000000122F9E74C23F0B54343224E224F1A1D0B
:10301000324400244FF0010E1E448C4205D101467B
:10302000BDE8F0401D4804F0ABBC33680EFA04F56F
:103030001D422BD0136B7D690EFA03F32B4225D072
:10304000D2F818C07B61156805B3FA6833EA02024A
:1030500003D1BA6833EA020214D10F4A916833EA05
:10306000010103D1D26833EA02020DD1DCF810204D
:10307000134214BF01210221094B28461B68BDE8F9
:10308000F04018470221F7E70121F5E70134043247
:10309000C3E700BFBC2B0020003C0140396E010893
:1030A000D02D002006210846FFF7ACBF05210846B9
:1030B000FFF7A8BF01210420FFF7A4BF01210320CF
:1030C000FFF7A0BF01210220FFF79CBF01210846A6
:1030D000FFF798BF01210020FFF794BF012910B529
:1030E00018D11B4C838952B1A26803F00F03994099
:1030F0001143A160836843F00103836010BDA2689F
:1031000003F00F03994022EA0101A160836823F0D4
:103110000103F2E70229F1D10D4983895AB1CC6844
:1031200003F00F03012202FA03F32343CB60836809
:1031300043F00203E1E7CA6803F00F03012404FA35
:1031400003F322EA0303CB60836823F00203D4E78E
:10315000003C0140B0F90C3099B270B501F00F0697
:1031600006F00C0404F1804404F59C3401F00301E2
:10317000A56889000F228A40C3F3031325EA0205DC
:103180008B402B43A3600F4B01221968B2401143BF
:1031900019608468E50742BF996811439960A107E7
:1031A00042BFD9680A43DA6090F90030002B08DB8F
:1031B0005909012203F01F0302FA03F3024A42F8FD
:1031C000213070BD003C014000E100E02DE9F04FEE
:1031D00092464A1C85B080460C4666D00022039277
:1031E000334A344F516C41F480415164526C02F4C3
:1031F00080420392039A04F00F090C2202FB097229
:10320000C4F303105568062D47D8DFE805F0043AEB
:103210003C3E40424400284E0193FFF723FE0C2120
:1032200001FB09F17A1857F801E0244FA8F80C4087
:103230004C21694301247B5892F90820C8F80450B6
:1032400004FA0EF44FF0000B1C4388F80020C8F875
:1032500008B07C50132101FB05E507EB8501019BBC
:103260004B60174BC861C3F800A0164BC1F83490EF
:103270009B681032404643F82260FFF76BFF5846C8
:1032800010E0114EC8E7114EC6E7114EC4E7114ECB
:10329000C2E7114EC0E7114EBEE7114804F070FBC3
:1032A0004FF0FF3005B0BDE8F08F0846FAE700BFE9
:1032B00000380240646E0108D5300008BC2B0020A5
:1032C000D02D002000ED00E0CD300008C530000812
:1032D000BD300008B5300008AD300008A53000084A
:1032E000126E01088389184A03F00F03012110B5FB
:1032F00001FA03F39468DB431C409460D4681C40DB
:10330000D46014682340136090F90030002B0CDB6C
:103310005A0903F01F0301FA03F320320B4941F865
:103320002230BFF34F8FBFF36F8F90F90030002B27
:1033300009DB5A09012103F01F0301FA03F360328C
:10334000024941F8223010BD003C014000E100E09C
:10335000838903F00F020C235343104A70B544686D
:10336000D658FFF7BFFF4C210D4A6143012000FAF8
:1033700006F55058132303FB046320EA0500505060
:1033800002EB830000214160981D0C3302EB8000AA
:1033900002EB83034160596070BD00BF646E010899
:1033A000BC2B002008B503F07DF8002008BD00000C
:1033B00008B50A4B1B684BB103F08CFA04F09DF979
:1033C0004FF47A72002311F049F908BD03F0BEF8FA
:1033D0004FF47A73B0FBF3F008BD00BFD42D00208A
:1033E00010B588B003F064FF052101A803F06EFA60
:1033F0000424039B019A1A60962004F009FA019BA9
:10340000049A1B041360962004F002FA013CF0D1E8
:103410000424039B019A1A604FF4C87004F0F8F971
:10342000019B049A1B0413604FF4C87004F0F0F978
:10343000013CEED1DCE7000070B50D46A0B00446BB
:1034400003F036FF2B462246802168460BF01CFB1A
:10345000051E03DC03F042FF20B070BD094B1B6862
:1034600023B903220221084800F090FE064E0024F2
:103470001DF804103046013401F06AF8A542F7D176
:10348000E8E700BF1C2E0020C42F00200FB407B5B2
:1034900004A951F8040B0191FFF7CEFF03B05DF8CA
:1034A00004EB04B07047000008B502F0A9FF01F07A
:1034B000ADF802F095FF02F0A3FF024B01221A6063
:1034C00008BD00BFD42D00200020704703680122F2
:1034D0001B6900211847036800221B691146184721
:1034E00003681B69184703689B69184703689B6A50
:1034F000184700290CBF6FF018000020704701200A
:1035000070471120704770476FF01C0070476FF0D4
:103510001500704701207047002070477047000079
:10352000F8B5074E15460C468F18BC4205D014F866
:10353000011B304601F00CF8F7E72846F8BD00BF44
:10354000C42F002038B58DB215F0010405D008480D
:1035500000F098FD041C18BF0124EB0605D50448B3
:1035600000F0A6FD08B144F01004204638BD00BFAD
:10357000C42F002010B5044605F05EFB204610BDA8
:1035800010B50C462AB1044800F0D0FF207001208D
:1035900010BD104610BD00BFC42F002038B51D4619
:1035A000074B0360074B1B68044633B9064800F01D
:1035B000EDFD2946044800F0B1FD204638BD00BFAE
:1035C000A06F01081C2E0020C42F0020002070478F
:1035D0000020704708B5012000F036F80C4A136847
:1035E00010B51844EFF30881884205D3094B0C222B
:1035F0001A604FF0FF3010BD07490C6824B107492D
:10360000096821448842F1D21060184610BD00BFFD
:10361000980600208C2F0020E82D0020EC2D0020A3
:10362000074C08B523680546986804F0F7FC236842
:10363000D86804F0F3FC0DB1FFF7D2FEFEE700BF3F
:10364000B40600200120704708B5FFF7E9FF01200C
:103650007047002105F09EBD04F01ABD7047704709
:1036600008B5FFF7FBFF08BD08B5FFF7F8FF08BD79
:1036700010B5037803F00303012B04460CD02BB1E3
:1036800040F2A9520549064803F0EAFB237843F0CB
:1036900002032370012010BD002010BDE86F010857
:1036A0003F70010810B5037803F00303022B0446B2
:1036B00005D040F2B1520549054803F0D1FB23780B
:1036C00023F0030343F00103237010BDE86F0108EA
:1036D000657001083F2870B504462FDC184D55F879
:1036E00020305A1C13D1022811DCFFF771FF03466A
:1036F00058B92046FFF76AFF034630B9114E3378B8
:10370000BFF35B8FDB0704D50F4B45F82430184619
:1037100070BD3046FFF7ACFF0028F5D04FF41653CC
:10372000032202210848FFF739FF3046FFF7BAFFAE
:10373000064A07490448FFF785FFE5E70023E6E767
:1037400098050020D82D0020E42D0020C80100207D
:103750001D35000838B50546FFF7BCFF0B4B0024AC
:1037600043F8254030B904F01FFB092303604FF0F4
:10377000FF3038BD03685B699847051E04DA04F022
:1037800013FB6D420560F2E7204638BD9805002026
:10379000FFF7E0BF38B50C461546FFF79BFF38B979
:1037A00004F002FB092303604FF0FF34204638BDCC
:1037B00003682146DB682A469847041EF6DA04F0BF
:1037C000F3FA64420460EFE708B5131E06DA04F06A
:1037D000EBFA162303604FF0FF3008BD04D0FFF76B
:1037E000D9FF40EAE07008BD184608BD38B50C4660
:1037F0001546FFF76FFF38B904F0D6FA09230360C6
:103800004FF0FF34204638BD036821469B682A46A6
:103810009847041EF6DA04F0C7FA64420460EFE742
:10382000002A08B503DBBDE80840FFF7DFBF04F05E
:10383000BBFA162303604FF0FF3008BD10B5FFF749
:1038400049FF044628B904F0AFFA09230360204673
:1038500010BD0368DB699847041EF8DA04F0A4FA87
:10386000644204600024F2E71FB504220C464023A2
:103870000DEB020101900DF109008DF8083005F003
:1038800037FA214602A804F091FD044630B10198B0
:10389000FFF7D4FF10B12046FFF7DBFE204604B04F
:1038A00010BDFFF7CBBF38B50C461546FFF712FF2A
:1038B00038B904F079FA092303604FF0FF34204649
:1038C00038BD036821461B692A469847041EF6DA6C
:1038D00004F06AFA64420460EFE7FFF7E4BF38B52A
:1038E0000D46FFF7F7FE044630B904F05DFA0923F0
:1038F00003604FF0FF3038BD0368DB69984700284C
:1039000014BF4FF400534FF400436B60236820460C
:103910009B6A98472861002038BDFFF7E0BF05F09B
:103920008BB90000034610B553F8042B044602B9C6
:10393000036022689A4204D05E220349034803F0E0
:103940008FFA206810BD00BF246F0108836F010843
:1039500010B504460948FFF7E5FF0023084A194659
:1039600052F82300A04208BF42F823100133402B35
:10397000F6D10248FFF7D6FF10BD00BFDC2D0020B6
:103980009805002010B50F48FFF7CCFF0E4B03241D
:1039900053F824206AB10134402CF9D104F004FA20
:1039A000182303600748FFF7BDFF4FF0FF342046A0
:1039B00010BD4FF0FF32034843F82420FFF7B2FF59
:1039C000F5E700BFDC2D00209805002010B5044667
:1039D000FFF7D8FF0028A4BF014B43F8204010BDDB
:1039E0009805002070B506460C46FFF7EFFF054628
:1039F00090B12146FFF738FF044630B9074B53F822
:103A00002520964203D143F82500204670BD04F0DE
:103A1000CBF909230360F8E70446F6E79805002090
:103A20000EB42DE9F04185B00546FFF7ABFF041E4B
:103A300013DB0023294602A8019303F075FE02A8B8
:103A400003F0C4FE1B4D064668B904F0ADF913231C
:103A5000036045F824604FF0FF34204605B0BDE810
:103A6000F04103B0704702A803F09EFE074602A88B
:103A700037B103F0A2FE0190019B45F82430ECE73A
:103A800003F089FE06460028DFD0036802A8D3F8B9
:103A9000088003F075FE0B9B024601A93046C04723
:103AA00006460028E8D004F07FF97642066045F823
:103AB0002470D0E79805002073B50E4618490546D6
:103AC00005F0E2FC044620B9FFF704FE204602B0F0
:103AD00070BD1449284605F0D7FC20B90120FFF736
:103AE000F9FD0124F2E71049284605F0CDFC20B984
:103AF0000220FFF7EFFD0224E8E72B78402B07D1E7
:103B00000422691C0DEB020005F0F2F8019CDDE7D0
:103B100026F400412846FFF783FF0446D6E700BF9E
:103B2000AC700108B3700108A470010870477047B9
:103B3000074B08499A68084810B5043A52F8044FF0
:103B400041F8044F8142F9D14FF000529A6010BD04
:103B500000ED00E0FCFFFF1FC001002008B5FFF7EB
:103B6000E7FFFFF7A1FCFFF7E2FF08BD08B5FFF78D
:103B7000DDFFBDE80840FCF79FBB30B5C36891FA94
:103B8000A1F4B4FA84F491FAA1F10325B1FA81F118
:103B9000640005FA04F4490023EA040302FA01F17F
:103BA0001943C16030BD012A02D0022A18BF002289
:103BB000FFF7E3BF2DE9F0410E46411C044604D156
:103BC0003E224449444803F04BF904F00F08434BAC
:103BD000C4F3031053F82850FFF744F906F0070721
:103BE0000446836895FAA5F1B1FA81F195FAA5F238
:103BF0000320490000FA01F1B2FA82F223EA01033C
:103C00005200022101FA02F21343A36087425AD8FC
:103C1000DFE807F05E1D021DB8F1070FC6F30320B1
:103C20003BD9626A2B0A93FAA3F1B1FA81F193FAB4
:103C3000A3F34FF00F0EB3FA83F389000EFA01F1EC
:103C40009B0022EA010200FA03F3134363623B463E
:103C5000226895FAA5F0B0FA80F095FAA5F14FF038
:103C6000030EB1FA81F140000EFA00F0490022EA99
:103C700000028B40013F1343012F236005D8636886
:103C800032074CBF2B43AB436360C6F30112294696
:103C90002046BDE8F041FFF786BF226A95FAA5F3FA
:103CA000B3FA83F395FAA5F14FF00F0EB1FA81F153
:103CB0009B000EFA03F3890022EA030200FA01F3E3
:103CC00013432362C3E767220249054803F0C8F89B
:103CD0000023BDE7FC700108FF6D0108BC700108FE
:103CE000F3770108431C70B506460D4604D18822BF
:103CF0001B491C4803F0B4F806F00F021A4BC6F338
:103D0000031053F82240FFF7ADF804FB04F20168FA
:103D100002EB42030B40B3FBF2F3013B012B05D84E
:103D2000EB1E022B436809D823434360032D08D1BF
:103D300001222146BDE87040FFF735BF23EA0403A6
:103D40004360012DF4D0052D01D0022D01D10222B6
:103D5000EFE721460022BDE87040FFF70EBF00BF2D
:103D6000FC700108FF6D0108BC70010870B5A6B0B9
:103D70003422002102A805F0D1F85C2200210FA80E
:103D800005F0CCF82A4B1D68002D4FD1294C019528
:103D900001261E60236C43F080532364236C03F0E0
:103DA00080530193019B00F05DFC042302A8029361
:103DB0000895049600F0C0FF10B11F4803F0E0FD25
:103DC000A36823F4F813A360A36823F4F813A36093
:103DD000236F43F48073236720230F930FA84FF4BE
:103DE00080731F9300F058FD10B1144803F0C8FD14
:103DF000134B144801221A60134B03600322002363
:103E0000826041F6FF7243774360C26003614361A1
:103E1000836101F05EF910B10C4803F0B1FD09486F
:103E200001F089FA10B10A4803F0AAFD26B070BD6E
:103E3000F82D002000380240547101087471010807
:103E40003C0E4742FC2D0020002800409D710108D7
:103E5000B7710108F0B51F4B1F491C681F4A5D6808
:103E60008BB00C4015401E460F461868084084422F
:103E70002BD158681040854227D105F03F0001F052
:103E800051FA0490C5F3042001F04CFA0138059072
:103E9000280C01F047FA44300690C4F3054001F0C5
:103EA00041FA0390C4F3062001F03CFA029004F0BA
:103EB0007F0001F037FA01220190694601A802F063
:103EC000EDFF00B100980BB0F0BD346875683C4060
:103ED0001540CAE7002800407F7F7F003FFFFF00BA
:103EE000024BD868C0F30010704700BF00280040A4
:103EF000214B224A2DE9F0411D691C689E6AC5F3D9
:103F00000E05144018461746196811408C422ED1F0
:103F1000996A8E422BD1C4F3054001F003FA07469B
:103F2000C4F3062001F0FEF9804604F07F0001F0A2
:103F3000F9F9134A13493C2313FB08004FF461635A
:103F400003FB07001368146898420B683CBF03F535
:103F5000A83303F5C0731B1B03440B601060086893
:103F6000013DC00305EB9000801BBDE8F0810468B3
:103F7000866A3C40C8E700BF002800407F7F7F0082
:103F8000F42D0020F02D002030B591B00021142236
:103F9000044602A8019104F0C1FF03F089F92A4BFD
:103FA0002A4A1A6007A90122204602F0C7FF00280A
:103FB00048D00D9B03B907238DF804300B9B0133C8
:103FC0008DF805300A9B8DF806300C9B443B8DF82C
:103FD0000730099B8DF80830089B8DF809300024C4
:103FE000079B8DF80A308DF80B4005940694FFF777
:103FF0007FFF9DF809109DF80A2013483C2313FB0E
:1040000001229DF808304FF4616101FB0323104A3F
:1040100013600E4B224601A99D6A01F0B3F810B15E
:104020000C4803F0ADFC002202A9074801F00AF990
:1040300010B1094803F0A4FC044A936A9D42FCD1E4
:1040400003F04CF911B030BDFC2D002000280040D9
:10405000F42D0020D0710108E77101080FB407B5F5
:10406000064B07491B6805AAD868019209F0BEF8FB
:1040700003B05DF804EB04B0704700BFB406002045
:10408000FE7101084368094A9B0182B0D3581A683F
:10409000120706D5002201921A6801925A6801920D
:1040A000019A1868C0F3401002B070471030002029
:1040B0004368034A9B01D3581868C0F3C010704787
:1040C0001030002042681449920110B40468545022
:1040D000531882685A60C2689A600269DA6042695D
:1040E0001A61026A9A610022DA84DA619A84DA85B6
:1040F0009A85B0F91A20013206D108225A61184671
:104100005DF8044B01F0B1BEB0F9182001320CBFCC
:1041100004220C22F2E700BF1030002010B58160AD
:104120000C46FFF7CFFF28B121460348BDE81040F9
:10413000FFF794BF10BD00BFFE710108124B9842FB
:1041400017D0A3F54C43984215D003F580639842ED
:1041500013D003F58063984211D003F58063984231
:104160000FD003F5444398420CBF05204FF0FF30B9
:1041700070470020704701207047022070470320DD
:1041800070470420704700BF00100140F0B50E4694
:1041900087B004465B493046154602F0D3FC5A49C5
:1041A0000746284602F0CEFC0146384602F0A4FC41
:1041B0002060013004D13D225449554802F050FEA0
:1041C000022E0CD0032D0AD04E49022002F0BAFC78
:1041D000874202D14F4803F0D3FB002700E00127BC
:1041E0004D4B206898424FF000031AD100934B4B7F
:1041F0005A6C42F010025A645B6C03F01003009397
:10420000009B474B984229D100230593434B5A6C9E
:1042100042F020025A645B6C03F020030593059B77
:104220001CE0404A90420BD101933C4B1A6C42F483
:1042300000321A641B6C03F400330193019BE0E726
:10424000394A904240D10293344B1A6C42F4802296
:104250001A641B6C03F480230293029BFFF76EFF2A
:104260000028606004DAA4222849304802F0F8FDF2
:104270002449304602F01CFC2349284602F018FC71
:10428000721C03D001213046FFF72CFD6B1C03D0BC
:1042900001212846FFF726FD4FF41653A3600023A3
:1042A000E360236163612362268365832046FFF711
:1042B00009FF3FB11E4B1F4801221A6021464C22C4
:1042C00004F016FD07B0F0BD1B4A90420BD10393DA
:1042D000124B1A6C42F400221A641B6C03F4002384
:1042E0000393039BBAE7154A90428AD104930B4B80
:1042F0001A6C42F480121A641B6C03F4801304934A
:10430000049BABE70C6D0108946C0108287201084E
:1043100084720108A07201080010014000380240B8
:10432000001401400044004000480040D5720108DC
:104330001C2E0020C42F0020004C004000500040E4
:10434000002808DB4209012300F01F0003FA00F0F7
:10435000014B43F82200704700E100E000280DDB2C
:104360004309012200F01F0002FA00F02033044A42
:1043700042F82300BFF34F8FBFF36F8F704700BF2A
:1043800000E100E0F7B5FFF7D9FE071E26DB144E6B
:1043900056F8270010B3134CBD0163591A68120672
:1043A00006D5DB68190603D50F4B01211B6898471A
:1043B00063591A68920608D5DB68980605D50A4B3A
:1043C00056F827001B680021984763591A6811079F
:1043D00004D55A69D20744BF5B68019303B0F0BDAE
:1043E000242E002010300020202E00200148FFF74E
:1043F000C9BF00BF001401400148FFF7C3BF00BFA1
:10440000005000400148FFF7BDBF00BF004C004016
:104410000148FFF7B7BF00BF004800400148FFF761
:10442000B1BF00BF004400400148FFF7ABBF00BF71
:1044300000100140034B19604168034B43F82120F1
:10444000704700BF202E0020242E002030B490E8BA
:1044500018002C48834233D00AD8A0F5006083426C
:1044600028D000F58060834227D0002318460FE053
:10447000254883420AD000F58060834223D0A0F50E
:1044800044408342F1D1214B352001E0204B2520CF
:10449000204DA401FAB1C9B92959CA6842F02002D5
:1044A000CA601D4A00F11001926830BC42F8213008
:1044B000FFF746BF194B2620EAE7194B2720E7E70D
:1044C000184B3420E4E7184B4720E1E72959CA6824
:1044D00042F08002E4E72B59DA6849B922F0200261
:1044E000DA60DB6813F0800F09D130BCFFF736BF0C
:1044F00022F08002DA60DB6813F0200FF4E730BCB2
:10450000704700BF004C004000100140F943000814
:10451000294400081030002000ED00E01D44000890
:104520001144000805440008ED43000838B544680C
:1045300005462846FFF7A6FD0028FAD0A401034B44
:104540001B595868C0F3080038BD00BF1030002068
:1045500070B5456806460C463046FFF7A9FD0028B1
:10456000FAD0AD01024B5B59C4F308045C6070BD26
:104570001030002008B50E4AC36D934214D008D8FD
:10458000A2F5806293420FD00A4803F0F9F90020A7
:1045900008BD094A934203D002F580629342F3D1E9
:1045A000BDE8084000F04AB9BDE8084000F036B95F
:1045B000003C0040E772010800300140DFF830D0D5
:1045C000002103E00B4B5B58435004310A480B4B6E
:1045D00042189A42F6D30A4A02E0002342F8043B0A
:1045E000084B9A42F9D301F01FFEFBF70FFE70470C
:1045F0000000022014810108C8010020881000205A
:1046000088100020D8310020FEE7704708B50B4B1A
:104610001A6842F400721A601A6842F480621A60E2
:104620001A6842F480721A60032000F009F80F2023
:10463000FEF7B8FEFFF7E9FF002008BD003C02408E
:10464000074AD36823F4E0631B041B0C43F0BF63E9
:10465000000243F4003300F4E0600343D36070478A
:1046600000ED00E0014B01221A60704720000E426D
:1046700037B500230193184B184C1A6C42F0805246
:104680001A641B6C03F080530193019B144B0122AD
:104690001A60FEF78DFE05466368DA030BD5114BF1
:1046A0000E4C01221A60FEF783FE054663689B03E9
:1046B0000AD5002006E0FEF77BFE401BB0F57A7FAE
:1046C000EAD9032003B030BDFEF772FE401BB0F5FF
:1046D0007A7FEBD9F5E700BF003802400070004058
:1046E00040000E4244000E422DE9F0410D460446C2
:1046F00010B90120BDE8F081444B1A6802F00F02A6
:104700008A4228D321688F072DD4C80740D43F4B55
:104710001A6802F00F02954266D3226851076CD4E2
:10472000130707D53A4A2169936823F4604343EAA3
:10473000C103936000F0B8FA354B364A9B68C3F367
:104740000313D35CD840344B18600F20FEF72AFEC9
:104750000020BDE8F081CAB21A701B6803F00F0395
:104760009942C6D1CEE72A4B11F0040F1EBF9A68BA
:1047700042F4E0529A600E0742BF9A6842F46042E7
:104780009A609A68A06822F0F00202439A60BCE73F
:1047900062681F4B012A1DD11B6813F4003FA8D08B
:1047A0001B4EB36823F003031343B360FEF700FE10
:1047B00041F288380746B368626803F00C03B3EB34
:1047C000820FA4D0FEF7F4FDC01B4045F3D90320AF
:1047D000BDE8F081911E01291B6802D813F0007F0B
:1047E000DDE713F0020FDAE7EAB21A701B6803F094
:1047F0000F039D427FF47DAF8FE70549E0688B682A
:1048000023F4E05303438B608AE700BF003C02407F
:1048100000380240ED7301089C060020044B054A55
:104820009B68C3F38223D35C034A1068D840704767
:1048300000380240FD7301089C060020044B054A25
:104840009B68C3F34233D35C034A1068D840704777
:1048500000380240FD7301089C0600200F2303600E
:104860000B4B9A6802F0030242609A6802F0F00271
:1048700082609A6802F4E052C2609B68DB0803F42D
:10488000E0530361034B1B6803F00F030B60704799
:1048900000380240003C024003682DE9F74313F062
:1048A000010604460BD0AA49866BD1F88C2022F071
:1048B000C0623243B6FA86F6C1F88C2076099D07AD
:1048C0000BD5A348E16BD0F88C2022F0C0520A43EC
:1048D0000029C0F88C2008BF012613F0040512D06F
:1048E0009B49256BD1F88C20B5F5801F22F440122E
:1048F00042EA050218BFB5FA85F5C1F88C2012BF4F
:104900006D090025012618070FD59148616BD0F875
:104910008C2022F440020A43B1F5800FC0F88C20AD
:1049200000F00981002908BF0125990633D500232D
:104930000193874B874F1A6C42F080521A641B6CAC
:1049400003F080530193019B3B6843F480733B6009
:10495000FEF72EFD80463B68DA0540F1EE807C4F85
:104960003B6F13F4407340F0FB80236C03F4407200
:10497000B2F5407F764A40F01681916823F070408E
:1049800021F4F81120F4407001439160116FC3F3DA
:104990000B030B4313672368D90642BF6E4B94F891
:1049A00058201A6023681A0608D56949E06CD1F8C6
:1049B000942022F440020243C1F894205F0608D5F7
:1049C0006349A06CD1F8942022F080620243C1F8C0
:1049D0009420D8050CD55E48616DD0F8942022F063
:1049E00000620A43B1F1006FC0F8942008BF0125AE
:1049F000990508D55649606CD1F8942022F0805270
:104A00000243C1F894205A0500F1D180012E40F0F4
:104A1000DC80524E4E4F00233360FEF7C9FC8046C7
:104A20003B681B0100F125812268D00701D5A36BEB
:104A30001BB1910715D5E36B9BB94549D1F884307B
:104A4000D1F8840003F4403300F0706003436068E1
:104A50000343A06843EA8013606943EA0073C1F826
:104A60008430530703D5236BB3F5801F05D0170798
:104A700020D5636BB3F5800F1CD13549D1F8843054
:104A8000D1F8840003F4403300F0E0400343606851
:104A90000343A06843EA8013206943EA0063C1F836
:104AA0008430D1F88C00A36A20F01F00013B03433F
:104AB000C1F88C3050051BD5236DB3F1005F17D1C1
:104AC00023486768D0F88410D0F8843003F0E043BE
:104AD0003B43A768C1F30141013143EA871343EA2D
:104AE0004163E1684908013943EA0143C0F8843071
:104AF000110511D52369A2681B0643EA8213626877
:104B00001343626943EA0273E2685208013A43EAD6
:104B100002430F4AC2F8843001233360FEF748FC99
:104B20000B4E074633681A0153D4FEF741FCC01BF5
:104B30000228F7D908E00126F7E6FEF739FCA0EBDA
:104B4000080002287FF607AF032003B0BDE8F0831A
:104B50000038024000700040E011474268004742C0
:104B6000226C02F4407293423FF4FFAE3B6F4B4A1B
:104B70000121116023F44073002111603B673B6FFA
:104B8000DB077FF5F2AEFEF713FC41F28839804671
:104B90003B6F98073FF5E9AEFEF70AFCA0EB080073
:104BA0004845F5D9D0E7916821F4F811EDE63C4885
:104BB000216DD0F8942022F000520A43B1F1005F39
:104BC000C0F894207FF422AF23E7B3F5006F3FF4E1
:104BD00020AF012D4BD1334D314E00232B60FEF71A
:104BE000E7FB074633689B004BD421684E0701D58D
:104BF000236B1BB108071AD5636BC3B9284AA06998
:104C0000D2F8883003F440330343E06943EA801369
:104C1000606A43EA0063C2F88830D2F88C30E06AF8
:104C200023F4F853013843EA0023C2F88C30CA0554
:104C300014D5636DB3F1006F10D11949A269D1F891
:104C4000883003F070631343E26943EA8213226AF7
:104C50005208013A43EA0243C1F8883001232B602D
:104C6000FEF7A6FB0E4C054623689B000FD50020DF
:104C70006BE7FEF79DFBA0EB080002287FF6D0AEA5
:104C800062E7FEF795FBC01B0228ABD95CE7FEF795
:104C90008FFB401B0228E7D956E700BF400E474272
:104CA0000038024070004742204908B58B6803F085
:104CB0000C03082B07D00C2B20D01D4A1D48042BB9
:104CC00018BF104608BD4A684B68496813F4800352
:104CD00014BF18481648C1F3881118BF002302F00A
:104CE0003F02A1FB00010FF0B9FC104B5B68C3F35E
:104CF000014301335B00B0FBF3F008BD4A684B6829
:104D0000496813F4800314BF0A480948C1F38811A5
:104D100018BF002302F03F02A1FB00010FF09EFC30
:104D2000024B5B68C3F30273E5E700BF0038024043
:104D30000024F40000127A0003682DE9F341DF0734
:104D4000044610D423689E0767D423681A0700F12D
:104D5000B28023685B0700F1D080A269002A40F08E
:104D6000398100201EE0974B9A6802F00C02042A59
:104D700010D09A6802F00C02082A02D15B685D022A
:104D800008D4904B9A6802F00C020C2A0DD15A6894
:104D900050020AD58B4B1B689903D3D56368002B4F
:104DA000D0D1012002B0BDE8F0816268B2F5803F49
:104DB00011D11A6842F480321A60FEF7F9FA814D77
:104DC00006462B689A03BDD4FEF7F2FA801B6428CE
:104DD000F7D90320E6E77B4DB2F5A02F2B6807D16A
:104DE00043F480232B602B6843F480332B60E4E78B
:104DF00023F480332B602B6823F480232B60002A5C
:104E0000DBD1FEF7D5FA06462B689B039AD5FEF751
:104E1000CFFA801B6428F7D9DBE76A4B9A6812F057
:104E20000C0F10D09A6802F00C02082A02D15B68BD
:104E30005F0208D5634A936803F00C030C2B11D171
:104E400053685E020ED45F4B1A68950702D5E2687C
:104E5000012AA6D11A68216922F0F80242EAC102A9
:104E60001A6072E7E268584BB2B101221A60FEF78D
:104E70009FFA544D06462B68980707D52B68226980
:104E800023F0F80343EAC2032B605EE7FEF790FAD3
:104E9000801B0228EFD99CE71A60FEF789FA494D7A
:104EA00006462B6899077FF550AFFEF781FA801B05
:104EB0000228F6D98DE76269444B7AB101221A6063
:104EC000FEF776FA3F4D06466B6F9F073FF541AF01
:104ED000FEF76EFA801B0228F6D97AE71A60FEF711
:104EE00067FA384D06466B6F98077FF532AFFEF7CD
:104EF0005FFA801B0228F6D96BE7324B1A6C12F06E
:104F0000805228D101921A6C42F080521A641B6CB4
:104F100003F080530193019B01262D4D2B68D90589
:104F20001BD5A368274D012B27D12B6F43F001031D
:104F30002B67FEF73DFA234D074641F288382B6F69
:104F40009B0739D5002E3FF408AF1E4A136C23F09F
:104F50008053136401E70026DFE72B6843F4807376
:104F60002B60FEF725FA07462B68DA05D9D4FEF741
:104F70001FFAC01B0228F7D92BE7052B04D12B6F92
:104F800043F004032B67D0E72A6F22F001022A675F
:104F90002A6F22F004022A67002BCAD1FEF708FA12
:104FA00041F2883807462B6F9807CBD5FEF700FAF9
:104FB000C01B4045F7D90CE7FEF7FAF9C01B404586
:104FC000BDD906E70038024000004742800E474244
:104FD00000700040234DAB6803F00C03082B3FF436
:104FE000E0AE214E0023022A33602DD1FEF7E0F916
:104FF00007462B68990121D4226AE3691343626A48
:1050000043EA8213E26A43EA0263226B43EA0273D1
:10501000A26A144C5208013A43EA02436B6001232E
:105020003360FEF7C5F9054623689A013FF599AE4E
:10503000FEF7BEF9401B0228F6D9CAE6FEF7B8F91A
:10504000C01B0228D5D9C4E6FEF7B2F904462B6886
:105050009B017FF586AEFEF7ABF9001B0228F6D95F
:10506000B7E600BF00380240600047427047026860
:1050700038B5D36823F0A003D3600446FEF798F94F
:1050800005462368DB689B0601D5002038BDFEF786
:105090008FF9401BB0F57A7FF3D9032038BD38B5BE
:1050A0000368DA685206044601D5002038BD4FF087
:1050B000FF32DA60FEF77CF905462368DB685B06A1
:1050C000F3D4FEF775F9401BB0F57A7FF5D90320CC
:1050D00038BD38B50446B8B1437F03F0FF0213B9B9
:1050E0000277FFF7C3FF022363772368CA225A625D
:1050F00053225A622046FFF7D2FF2368054628B1A3
:10510000FF225A620423637701252EE09A68206902
:1051100022F4E00222F040029A6062689968024339
:10512000606902430A439A60E2681A611A69A168D9
:1051300042EA01421A61DA6822F08002DA609B6872
:105140009B0605D42046FFF792FF08B12368D7E7F6
:105150002368A1691A6C22F480221A641A6C0A432B
:105160001A64FF225A6201236377284638BD002360
:10517000092803D840EA0310C0B270470A38013347
:10518000C0B2F5E7F8B5037F012B05464FF00206E4
:1051900030D00123037746774B78C8788E780C7827
:1051A000002A48D1DA0603D523F010030A334B70E6
:1051B000FFF7DDFF07464878FFF7D9FF0246304684
:1051C000FFF7D5FF40EA443040EA074040EA0224B6
:1051D0002B68CA225A6253225A622846FFF75FFFA1
:1051E0002B68064640B1FF225A6204236B770023E6
:1051F0002B7701263046F8BD24F07F4424F0C0040C
:105200005C60DA6822F08002DA609B689B060AD450
:105210002846FFF72CFF30B12B68FF225A62042387
:105220006B772E77E5E72B68FF225A6201236B77B5
:1052300000232B77DEE71B0243EA0040304340EABD
:105240004434C5E7F8B5037F012B06460F464FF0FF
:1052500002052FD0012303770368457708784D783E
:105260008C789B6842BB13F0400308BFCB70FFF7FC
:105270007EFF01462846FFF77AFF02462046FFF7E9
:1052800076FFFB7840EA034040EA014040EA02240E
:105290003368CA225A6253225A623046FFF7FFFE31
:1052A00033680546A8B1FF225A62042373770023AE
:1052B000337701252846F8BD13F040034FEA052552
:1052C00008BFCB7045EA00402043CC7840EA044454
:1052D000DEE704F07F3424F0FE441C609A683869ED
:1052E00022F480229A60FA68996802430A439A601D
:1052F000DA6822F08002DA609B689B060AD43046A6
:10530000FFF7B5FE30B13368FF225A62042373778A
:105310003577CEE73368FF225A6201237377002383
:105320003377C7E7030903EB830300F00F0000EBBB
:105330004300C0B27047037F012B4FF002030FD030
:1053400043770368CA225A6253225A629A6842F02B
:1053500020029A60FF225A620123437700230377D9
:105360001846704703685A6822F0E0025A604268A3
:10537000B2F5827F0AD18268B2F5004F02D0B2F551
:10538000806F03D11A6822F040021A60826AB2F577
:10539000005F09D11A6822F400521204120C1A603C
:1053A0001A6842F400521A60012380F85130002339
:1053B00080F850300320704770B505460C461646FD
:1053C00029688B689B0701D5002070BD621CF8D04E
:1053D00024B92846BDE87040FFF7C4BFFDF7E8FFD9
:1053E000801B8442ECD8F4E72DE9F041DDF8188009
:1053F00005460F4616461C462B6898683840B04252
:1054000002D10020BDE8F081621CF6D024B9284604
:10541000BDE8F041FFF7A6BFFDF7CAFFA0EB08000B
:105420008442E9D8F3E713B50B46009280210022AD
:105430000446FFF7D9FF20B1636D43F02003636595
:10544000032002B010BD704738B5044600283BD099
:1054500090F8513003F0FF021BB980F85020FFF79D
:10546000F2FF2168A568A06AA269022384F851307E
:105470000B6823F040030B6063682B43E5682B4304
:1054800025692B4365692B43E5692B43256A2B432B
:10549000034302F400752B430B60120C636AB0F5F2
:1054A000005F02F0040242EA030208BFE36A4A60B6
:1054B00008BF0B61CB6923F40063CB61002001239B
:1054C000606584F8513038BD012038BD2DE9F341C5
:1054D0001E4690F85030012B04460D46904600F0D1
:1054E000BA80012380F85030FDF762FF074694F838
:1054F0005100C0B2012840F0AC80002D5FD0B8F15F
:10550000000F5CD0032384F8513000236365A3634C
:10551000A4F83680A387E38763642364A3682268C2
:105520002563B3F5004F08BF1368A4F8348004BFA7
:1055300043F480431360A36AB3F5005F09D1136895
:1055400023F400531B041B0C1360136843F4005333
:10555000136013685B065EBF136843F0400313607B
:10556000E368B3F5006F63683AD11BB1E38E9BB279
:10557000012B06D135F8023BD360E38E013B9BB291
:10558000E386E38E9BB283B93A4631462046FFF765
:1055900013FF98B93A4631462046FFF744FF0028EA
:1055A00040D020236365012009E023689A689007B2
:1055B00003D535F8022BDA60DFE74EB9032001236B
:1055C00084F85130002384F8503002B0BDE8F081F7
:1055D000711CD6D0FDF7ECFEC01B8642D1D8EDE79A
:1055E0001BB1E38E9BB2012B06D115F8013B13735F
:1055F000E38E013B9BB2E386E38E9BB2002BC3D0CC
:1056000023689A68920703D515F8012B1A73EFE700
:10561000002ED3D0731CEFD0FDF7CAFEC01B86420C
:10562000EAD8CBE7A36833B901932368DA6801921B
:105630009B680193019BA36AB3F5005F01BF2268D9
:10564000136843F480531360606D003018BF01206D
:10565000B5E70220B3E70220B7E72DE9F04385B0B4
:1056600099460023ADF80A3090F850300C9E012B7B
:1056700004460D46904600F04581012380F85030E5
:10568000FDF796FE94F851306168DBB2012B0746B6
:105690000AD0B1F5827F40F03381A268002A40F041
:1056A0002F81042B40F02C81002D00F01B81B8F1DC
:1056B000000F00F01781B9F1000F00F0138194F88A
:1056C0005130C4F83880012B04BF052384F85130D1
:1056D0000023636523646364A36AA4F83E90B3F572
:1056E000005FA4F83C902563A4F83690A4F83490A9
:1056F000236809D11A6822F400521204120C1A60AD
:105700001A6842F400521A601A6850065EBF1A689E
:1057100042F040021A60E268B2F5006F6BD119B135
:10572000E28E92B2012A06D135F8022BDA60E38EBE
:10573000013B9BB2E3864FF00109E38E9BB2B3B904
:10574000E38F9BB29BB9A36AB3F5005F40F0AE80D4
:1057500001220097334611462046FFF745FE0028F8
:1057600000F09D80636D43F00203636535E0B9F19D
:10577000000F1BD0E38E9BB2C3B1226893689907D8
:1057800014D535F8023BD360E38E013B9BB2E38630
:10579000E38E1FFA83F9B9F1000F29D1A16AB1F59F
:1057A000005F03D1116841F480511160E38F9BB217
:1057B00063B123689A68D20708D5DB6828F8023BF2
:1057C000E38F013B9BB2E3874FF00109701CB4D01B
:1057D000FDF7EEFDC01B8642AFD80325012384F8F8
:1057E0005130002384F85030284605B0BDE8F083DE
:1057F0004FF00009DAE719B1E28E92B2012A06D120
:1058000015F8012B1A73E38E013B9BB2E3864FF030
:105810000109E38E9BB21BB9E38F9BB2002B92D0A0
:10582000B9F1000F21D0E38E9BB2F3B123689A68DF
:1058300091071AD529781973E38E013B9BB2E38651
:10584000E38E1FFA83F96A1CB9F1000F0AD1A16A2D
:10585000B1F5005F04D12068016841F48051016016
:10586000154602E015464FF00009E38F9BB273B175
:1058700023689A68D2070AD5DB6888F80030E38F7E
:10588000013B9BB2E38708F101084FF00109731C4B
:10589000BFD0FDF78DFDC01B8642BAD89DE72368B7
:1058A000DB689BB2ADF80A30BDF80A302268956813
:1058B00015F0100507D0636D43F0020363654FF6E2
:1058C000EF73936001253A4631462046FFF774FD99
:1058D000002882D13A4631462046FFF7A4FD18B190
:1058E00020236365012579E7A368002B7FF476AF59
:1058F00003932368DA6803929B680393039B6DE725
:1059000002256BE702256FE72DE9FF411D460023C5
:10591000ADF80E304368B3F5827F04460E469046DC
:105920000CD1836853B9042380F851301346009595
:105930000A46FFF792FE04B0BDE8F08194F85030BB
:10594000012B00F0CD80012384F85030FDF730FDAD
:10595000074694F85100C0B2012840F0BF80002EE5
:105960007DD0B8F1000F7AD0042384F851300023A1
:1059700063652363A4F83E80A386E386236463649F
:10598000A36AA663B3F5005FA4F83C8023680DD139
:105990001A6822F400521204120C1A601A6842F4B7
:1059A00000521A60E28F013A92B2E287A268B2F521
:1059B000004F02BF1A6822F480421A601A6851062A
:1059C0005EBF1A6842F040021A60E368CBB1E38F11
:1059D0009BB2D3B123689A68D0074FD5DB6826F80D
:1059E000023BE38F013B9BB2E387F0E723689A68B1
:1059F000D20732D51B7B06F8013BE38F013B9BB2FC
:105A0000E387E38F9BB2002BF0D1A36AB3F5005F6D
:105A100045D12268136843F4805313600122009734
:105A20002B4611462046FFF7DFFCB8B9E368B3F513
:105A3000006F23684FF001020BBFDB681B7B3380D4
:105A4000337000972B4611462046FFF7CDFCF8B186
:105A5000636D43F00203636500E03DB90320012359
:105A600084F85130002384F8503064E76B1CC8D0B0
:105A7000FDF79EFCC01B8542C3D8EFE7002DEDD09B
:105A8000691CA4D0FDF794FCC01B85429FD8E5E7B4
:105A90002368DB689BB2ADF80E30BDF80E3063684A
:105AA000B3F5827F23680AD1A268B2F5004F02D015
:105AB000B2F5806F03D11A6822F040021A609A682A
:105AC000D20606D5626D42F0020262654FF6EF72B1
:105AD0009A60606D003018BF0120C0E70220BEE769
